:100000000C9421010C9449010C9449010C94490170
:100010000C9449010C9449010C9449010C94490138
:100020000C9449010C9449010C9412050C94CA05D6
:100030000C9449010C9449010C9449010C94490118
:100040000C9449010C9449010C9449010C94490108
:100050000C9449010C9449010C9449010C94570EDD
:100060000C9449010C9449010C9449010C944901E8
:100070000C9449010C9449010C9449010C944901D8
:100080000C9449010C9449010C9449010C944901C8
:100090000C9408080C9449010C9449010C944901F2
:1000A0000C9449010C9449010C944901950B9A0B4D
:1000B0009F0BA90BB30BFD0BFD0BFD0BBD0BC70B72
:1000C000D10BDB0BE80BFD0BF00B1F0C220C110C02
:1000D000150C1B0C430C430C430C260C2A0C2E0C49
:1000E000340C380C430C3E0C080B000202020100D9
:1000F000090400000102020000052400100105248B
:1001000001010104240206052406000107058103FC
:1001100010004009040100020A0000000705020265
:100120004000000705830240000004030904120197
:100130000002EF0201404123368000010102030169
:1001400041726475696E6F204C4C43004172647556
:10015000696E6F204C656F6E6172646F00070605F3
:10016000040100080A0B0C0D090000000024002700
:10017000002A002D00300000000000250028002B80
:10018000002E003100000000002300260029002C72
:10019000002F000404040404030405020202020404
:1001A0000302020202060606060606040402020212
:1001B0000404040802011040804010204080408068
:1001C00008020401804020100201108010204040ED
:1001D000200000000200090F0000030401000C00D1
:1001E000000000000000000000000000000000000F
:1001F00005010904A1018506050919012920150039
:1002000025017501952081020501A1000930093100
:100210000933093416008026FF7F7510950481028A
:10022000093209351580257F750895028102C005C0
:10023000010939093915012508950275048102C0A3
:10024000D51511241FBECFEFDAE0DEBFCDBF11E020
:10025000A0E0B1E0E2EBFDE202C005900D92A4390E
:10026000B107D9F723E0A4E9B1E001C01D92A93E8E
:10027000B207E1F711E0C1E2D1E004C02197FE012D
:100280000E94CC16C032D107C9F70E94A10E0C946F
:10029000D7160C940000409186025091870220915D
:1002A00084023091850242175307B4F49091E8001C
:1002B0009570E1F39091E80092FD19C08093F100F0
:1002C000809186029091870201968F739927892BDE
:1002D00019F48EEF8093E800809186029091870256
:1002E0000196909387028093860281E0089580E0D2
:1002F0000895DF92EF92FF920F931F93CF93DF93B6
:10030000D82EF92EE42E062F10E0C8010196880F92
:100310000E944B0183E00E944B01CD2DDF2D0C0F7D
:100320001D1FC017D10789F0E7FE03C0FE018491AD
:1003300001C088810E944B01F82E80E00E944B0191
:100340008F2121968111EDCF01C081E0DF91CF9106
:100350001F910F91FF90EF90DF900895DF92EF9241
:10036000FF920F931F93CF93DF93D82E8A017B01C7
:10037000E40EF51EEB01CE15DF0571F0D7FE03C0CC
:10038000FE01849101C088810E944B012196811158
:10039000F2CF8FEF9FEF01C0C801DF91CF911F9186
:1003A0000F91FF90EF90DF9008952FB7F89487702A
:1003B0008093E9009091E800892F807295FF04C036
:1003C0009091F20080E4891B2FBF0895615030F0B6
:1003D0002091F100FC0120830196F8CF289884E653
:1003E00080934A030895CF92DF92EF92FF920F938A
:1003F0001F93CF93DF936C017A018B01C0E0D0E0B3
:10040000CE15DF0581F0D8016D918D01D601ED91FA
:10041000FC910190F081E02DC6010995892B11F026
:100420002196EECF7E01C701DF91CF911F910F91F1
:10043000FF90EF90DF90CF900895CF93DF931F92BE
:10044000CDB7DEB76983DC01ED91FC910280F381C9
:10045000E02D41E050E0BE016F5F7F4F09950F90A6
:10046000DF91CF91089583E08093E9008091F200BD
:10047000882319F08AE38093E800089583E00E94BE
:10048000D50190E00895FC018485958597FD0BC00A
:100490009FB7F89482E08093E9008091F2009FBFBB
:1004A00090E0019608959FB7F89482E08093E90068
:1004B0008091F2009FBF90E00895DC01FB0112964D
:1004C0008C91129790E02481358182179307D1F4A3
:1004D00091818081813A31F481E0913091F09330C3
:1004E00089F411C0813271F49B3021F482811F960E
:1004F0008C9305C09A3031F4828150968C9381E0C0
:100500000895089580E00895DC01FB0188E480836C
:1005100089E4818384E482831D969C911D979F705A
:100520009F5B93831D968D919C911E9724E09695D9
:1005300087952A95E1F78F708F5B848385E0089516
:10054000EF92FF920F931F93CF93DF93FB012081D4
:10055000213851F52381223239F5DC0112962C9194
:1005600030E04481558142175307F1F4EC010B85CB
:100570001C85E12CF12C0115110591F0F801448145
:1005800055816281738180E80E94AE018F3FFFEF49
:100590009F0769F0E80EF91ED8010D911C91EBCF71
:1005A00081E08F87C70105C080E090E002C08FEF37
:1005B0009FEFDF91CF911F910F91FF90EF900895E2
:1005C000CF93DF93CDB7DEB769970FB6F894DEBF50
:1005D0000FBECDBFFC01DB018C918F5F8C93BE0100
:1005E0006F5F7F4F89E1DB011D928A95E9F729E072
:1005F000298384E08A8391E09D8383E08E832A8728
:1006000021E22B879C879D879F8722E2288B27E00A
:100610002B8B25E02C8B8E8B20E430E0388F2F8BBA
:10062000998F82818B8395858685998B8A8B83812F
:1006300080688D8B49E150E080E00E94AE016996B0
:100640000FB6F894DEBF0FBECDBFDF91CF910895F6
:10065000FC0182818F5BFB01808381E0089585ED41
:100660008093BC008091BC0084FDFCCF1092B80246
:10067000089540915502262F30E0240F311D21327C
:100680003105DCF42091B8022430C9F4FC0180E08B
:1006900090E0861758F4309155022191DC01AB5C53
:1006A000BD4FA30FB11D2C930196F3CF809155023E
:1006B000680F6093550280E0089581E0089582E01C
:1006C0000895089508950895E0919102809190020F
:1006D000E81730F4F0E0EB5EFD4F808190E0089584
:1006E0008FEF9FEF0895909191028091900298175B
:1006F00050F4E92FF0E0EB5EFD4F208130E09F5F8A
:100700009093910202C02FEF3FEFC90108958091AD
:10071000900290E020919102821B91090895CF925E
:10072000DF92EF92FF920F931F93CF93DF937C01A1
:10073000CB018A012091B902222389F0EB016B01E0
:10074000C40ED51ECC15DD0569F06991D701ED9178
:10075000FC910190F081E02DC7010995F3CF642F42
:100760000E943903C801DF91CF911F910F91FF9033
:10077000EF90DF90CF900895CF93DF931F92CDB786
:10078000DEB769832091B9022223D1F02091DB02E8
:10079000203240F021E030E0FC013383228380E00E
:1007A00090E015C08091BA02E82FF0E0E554FD4FCB
:1007B000998190838F5F8093BA028093DB0205C09A
:1007C00061E0CE0101960E94390381E090E00F9034
:1007D000DF91CF910895089580E090E008950E9400
:1007E000D2167F928F929F92AF92BF92CF92DF925A
:1007F000EF92FF920F931F93CF93DF93C82E8B013D
:100800007A0180914B03811103C08FEF9FEF74C079
:1008100080918A0280FF05C08091E0008260809311
:10082000E000CE2DDF2DD12C8AEFB82E8C2D8770D5
:10083000982E8C2D8072882E8C2D8074782E9AE3C1
:10084000A92E209719F4DD2009F451C08C2D0E94A7
:10085000D50181110AC0BA94BB20B9F261E070E001
:1008600080E090E00E94110EECCF282F30E0C217FC
:10087000D3070CF48C2F9FB7F8949092E900209145
:10088000E80025FF32C0282F30E0C21BD30B8820A0
:1008900029F08150A0F01092F100FBCFF801C7FEC3
:1008A0000AC0815050F044914093F1003196F9CF45
:1008B00041914093F1008150D8F7020F131FDD20C2
:1008C00019F0A092E8000AC08091E80085FD08C0F8
:1008D000A092E800DD24D394209739F0D12C05C0F4
:1008E000209719F47110A092E8009FBFAACF5D98DD
:1008F00084E680938902C701DF91CF911F910F9108
:10090000FF90EF90DF90CF90BF90AF909F908F902F
:100910007F900895CF93DF93EC0180910B018823A2
:1009200031F083E00E94F1031816190634F081E0DB
:1009300090E09B838A8380E090E0DF91CF910895DF
:100940000F931F93CF93DF931F92CDB7DEB78C0128
:10095000FC018485958597FF0EC0CE0101960E940B
:100960009F0C019719F4898190E002C08FEF9FEFEF
:10097000F80195878487F801848595850F90DF912C
:10098000CF911F910F910895CF93DF931F92CDB711
:10099000DEB7FC018485958597FD05C02FEF3FEFFD
:1009A000358724870BC0CE0101960E949F0C0197CA
:1009B00019F4898190E002C08FEF9FEF0F90DF91D3
:1009C000CF910895EF92FF920F931F93CF93DF93F0
:1009D0001F92CDB7DEB78B017A018091AD038111F3
:1009E00005C00E94130D81E08093AD0386E08983EA
:1009F00041E050E0BE016F5F7F4F80919F030E94F6
:100A0000F10397FD07C080919F03A701B80180649F
:100A10000E94F1030F90DF91CF911F910F91FF90F2
:100A2000EF9008951F920F920FB60F9211248F939B
:100A30009F938091E1009091E100937F9093E1007A
:100A400083FF0FC01092E90091E09093EB001092A9
:100A5000EC0092E39093ED0010924B0398E090939A
:100A6000F00082FF20C093E09093E9009091F200A3
:100A7000992319F09AE39093E800909189029923C1
:100A800039F090918902915090938902992389F1CC
:100A900090914A03992339F090914A039150909391
:100AA0004A03992341F184FF10C08091E2008E7EB9
:100AB00081608093E2008091E1008F7E8093E1006D
:100AC00080918A028E7E806111C080FF16C0809165
:100AD000E2008E7E80618093E2008091E1008E7E54
:100AE0008093E10080918A028E7E816080938A02E9
:100AF00004C05D9ACDCF289AD6CF9F918F910F9049
:100B00000FBE0F901F90189580917C0281110DC02F
:100B100082E08093780284E08093790210927B02D5
:100B200010927A0281E080937C0288E792E0089537
:100B30000F931F93CF93DF931F92CDB7DEB782E061
:100B4000898342E450E068EE70E080E80E94AE01E4
:100B50000E948405DC0112960D911C9113970115DA
:100B6000110589F0D801ED91FC910280F381E02D0F
:100B7000BE016F5F7F4FC801099597FD04C0F80162
:100B800000851185ECCF89810F90DF91CF911F9166
:100B90000F9108951F920F920FB60F921124CF92CA
:100BA000DF92EF92FF920F931F932F933F934F93F8
:100BB0005F936F937F938F939F93AF93BF93EF93C5
:100BC000FF93CF93DF93CDB7DEB76C97DEBFCDBF7A
:100BD0001092E9008091E80083FFFBC168E0CE013C
:100BE00045960E94E60182EF8093E8008D8987FF99
:100BF00005C09091E80090FFFCCF03C09EEF90935A
:100C0000E800982F907609F0C6C09E894F89588DCC
:100C10002F89F88C91110CC0803829F480918B02B7
:100C20008093F10002C01092F1001092F10045C1D2
:100C3000913051F4811141C14130510509F03DC15C
:100C400080918B028D7F0BC0933061F4811135C18F
:100C50004130510509F031C180918B02826080934F
:100C60008B022BC1953049F48091E80080FFFCCFC6
:100C7000822F80688093E30020C1963009F05EC027
:100C80000B8D1C8D22E01092E900109287021092C9
:100C90008602F21232C010928502109284020E94E3
:100CA000980599E0BE016F5F7F4FDB01E92F1D9230
:100CB000EA95E9F79983FA8291E09E8390EA988712
:100CC0009AEF99872091860230918702275F3F4FE4
:100CD0003C832B838D831092E9001092870210923F
:100CE0008602109385020093840249E050E080E080
:100CF0000E94AE010E949805E0C010938502009307
:100D000084020E948405DC0112960D911C911397B8
:100D10000115110509F4BBC0D801ED91FC910480C7
:100D2000F581E02DBE016B5E7F4FC80109950097EC
:100D300009F0C7C0F80100851185EACF973009F4A2
:100D400045C1983021F481E08093F100B6C099301C
:100D500009F0B3C0837009F039C1EEE2F1E081E03F
:100D600031E096E32081211109C08EE78093EA00EB
:100D70001092EA008F8980934B039FC08093E90013
:100D80003093EB0021912093EC009093ED008F5F66
:100D9000873041F7EACF8B8D9C8D1092E90010923D
:100DA0008702109286029093850280938402898D37
:100DB000811153C08E899D89913A49F4813209F09D
:100DC00005C147E050E064E071E080E0BBC09132D3
:100DD00009F0FCC0833269F48F89988DA0E0B0E0FF
:100DE0008093000190930101A0930201B09303014D
:100DF00064C0803269F48091E80082FFFCCF67E034
:100E000084E091E00E94E6018BEF8093E80055C0FA
:100E1000823209F052C08F8980930B01EEEFFFE719
:100E2000859194918B3F9C4D19F0E0E0F8E002C071
:100E3000EEEFFAE08091040190910501A091060186
:100E4000B0910701803B9440A105B10509F09EC017
:100E500080910B0180FF79C099C00E948405FC013C
:100E6000028113810115110509F4B0C0D801ED917B
:100E7000FC910190F081E02DBE016B5E7F4FC801B7
:100E8000099581111AC0F80100851185EBCFF1E0B9
:100E9000FF1609F44EC0F3E0FF1298C08F89882333
:100EA00009F44AC0823089F440E860E18CE491E0C2
:100EB0000E947901882309F489C08EEF8093E800AD
:100EC00088C018161906CCF381C0813029F440E897
:100ED0006BE080E491E0ECCF833009F077C00E94B2
:100EE0008405DC011296ED90FC9013978E010F5F44
:100EF0001F4F6801E114F10479F0D701ED91FC91E5
:100F00000680F781E02DB801C7010995080F111D72
:100F1000F701E084F184EECFD8011C92F601019034
:100F20000020E9F73197BF016C197D0940E0C60147
:100F3000BFCF6EE271E002C06AE271E0FB01449152
:100F400050E080E80E94AE01B8CFEE3F2AE0F20701
:100F500051F0808191818737A7E79A0721F090931C
:100F6000FF0A8093FE0A87E797E791838083809149
:100F70006000809388029BE088E10FB6F894A89502
:100F8000809360000FBE9093600097CF8081918125
:100F90008737974709F091CFA895809160008861C5
:100FA000809360008091880280936000EE3FBAE0F9
:100FB000FB0739F08091FE0A9091FF0A91838083AC
:100FC0007CCF1092FF0A1092FE0A77CF81E28093C5
:100FD000EB006C960FB6F894DEBF0FBECDBFDF916D
:100FE000CF91FF91EF91BF91AF919F918F917F91A1
:100FF0006F915F914F913F912F911F910F91FF90B2
:10100000EF90DF90CF900F900FBE0F901F9018952C
:101010001F920F920FB60F9211242F933F934F936D
:101020005F936F937F938F939F93AF93BF93EF9350
:10103000FF938091B900887F803609F49CC068F5E1
:10104000883209F45BC090F4803109F454C038F45C
:10105000882309F4F6C0883009F44DC0F6C0883101
:1010600009F44CC0803209F45DC0EFC0803409F44B
:1010700068C048F4803309F455C0883309F0E5C0EE
:101080008093B602D8C0803509F44FC0883509F482
:101090005DC0883409F0D9C0D6C0883909F4C7C00A
:1010A000A8F4883709F467C038F4883609F463C0B7
:1010B000803709F460C0C9C0883809F4B8C08039E5
:1010C00009F45FC0803809F0C0C05BC0803B09F400
:1010D00086C038F4803A09F466C0883A09F47FC0C3
:1010E000B4C0803C09F4A7C0883C09F4A4C0883B84
:1010F00009F48AC0AAC08091930210C09091B502F1
:101100008091B402981770F5E091B50281E08E0FDE
:101110008093B502F0E0EC56FD4F80818093BB00D8
:1011200085EC86C08093B6028EC0E091B50281E066
:101130008E0F8093B5028091BB00F0E0EC56FD4F1E
:1011400080839091B5028091B4026EC0E091B502A7
:1011500081E08E0F8093B5028091BB00F0E0EC56E9
:10116000FD4F80838091B70281116DC081E0809333
:10117000920284EA61C083E08093B8021092770201
:10118000CFCF80917702803208F051C0E091770292
:1011900081E08E0F809377028091BB00F0E0E95AE6
:1011A000FD4F8083BDCF85EC8093BC001092B802C8
:1011B00080917702803230F4E0917702F0E0E95AD2
:1011C000FD4F10826091770270E0E0918C02F09107
:1011D0008D0287E592E009951092770236C084E08F
:1011E0008093B8021092560210925502E0918E023E
:1011F000F0918F02099580915502811105C081E01F
:101200008093550210923502E091560281E08E0FD4
:1012100080935602F0E0EB5CFD4F80818093BB0031
:101220009091560280915502981708F479CF85E87D
:101230008093BC000AC085EC8093BC001092B80279
:1012400004C01092B6020E942F03FF91EF91BF914C
:10125000AF919F918F917F916F915F914F913F914E
:101260002F910F900FBE0F901F901895682F80E15F
:101270000E947B0D60E08FE00E947B0D61E08FE0BB
:101280000C947B0D61E080E10E94AA0D61E08FE08B
:101290000E94AA0D61E085E00E94AA0D61E08DE048
:1012A0000E94AA0D60E08DE00E947B0D6AE070E074
:1012B00080E090E00E94110E61E08DE00E947B0DC5
:1012C0006AE070E080E090E00E94110E60E08DE046
:1012D0000E94AA0D60E08DE00C947B0D8F929F928E
:1012E000AF92BF92CF92DF92EF92FF920F931F9334
:1012F000CF93DF93CDB7DEB7E8970FB6F894DEBF94
:101300000FBECDBF80E2E4E3F1E0DE011196019073
:101310000D928A95E1F78091B8028111FCCF81E0AE
:101320008093B8028093B7029FEF9093B602109219
:10133000B5028093B40280939302809193028864F3
:101340008093930280919202813061F41092920214
:10135000809193028093BB008091BC0083FDF8CF05
:1013600085EC01C085EE8093BC008091B80281308D
:10137000E1F38091B502823018F49091B50201C07A
:1013800092E0A4E9B2E0E5E1F2E080E0891721F023
:101390002D9121938F5FFACF10929102809390024A
:1013A000F12C9091900280919102981709F186ECAE
:1013B00093E00E9473038095E1E2F0E0EC0FFD1FE3
:1013C00048E0F49EE00DF11D112420E030E090E0B3
:1013D000AC01022E02C0559547950A94E2F7417080
:1013E00041932F5F3F4F2830310591F7F394D9CFC8
:1013F000FE01319680E090E0DC01A252BD4F2C91BD
:1014000030E038AF2FAB9EAB8DABADA9BEA921911B
:101410003191BD016B5F7D4FA1E2B0E0AC0FBD1F0C
:101420002A0F3B1FD9012C91DB012C9301968031AF
:10143000910511F70E944B0E69AB7AAB8BAB9CAB5D
:1014400005E012E025ED31E0E5E9F1E065EE71E05F
:10145000CB01D8014D918D01D9015C91451741F027
:10146000C9A8DAA8EBA8FCA8C082D182E282F382E4
:10147000C9A8DAA8EBA8FCA880809180A280B380DC
:10148000C818D908EA08FB08BDE3CB16D104E1046B
:10149000F10454F0C9A8DAA8EBA8FCA8C082D18254
:1014A000E282F382DC014C93D9014D939D01349685
:1014B0000196B2E005311B0761F6E5EFF1E080E04F
:1014C00090E031E0DB012D91BD014081421739F000
:1014D000DC01A252BD4F222309F489C03C93219321
:1014E00001968031910571F780E090E0C12CD12CFC
:1014F0007601C394FC01E252FD4F2081222381F04A
:101500002091DC02B701A601082E04C0440F551F2C
:10151000661F771F0A94D2F7422B4093DC0211C05A
:101520003091DC02B701A601082E04C0440F551FFC
:10153000661F771F0A94D2F74095242F2323209308
:10154000DC02019688309105A9F680E090E0C12C7C
:10155000D12C7601C394FC01EA51FD4F3081332335
:1015600081F03091DD02B701A601082E04C0440FBE
:10157000551F661F771F0A94D2F7432B4093DD0255
:1015800011C03091DD02B701A601082E04C0440F3E
:10159000551F661F771F0A94D2F74095242F2323E7
:1015A0002093DD02019688309105A9F69091DC0226
:1015B0008091EE02892B8093EE029091DD02809162
:1015C000EF02892B8093EF02E8960FB6F894DEBF06
:1015D0000FBECDBFDF91CF911F910F91FF90EF9084
:1015E000DF90CF90BF90AF909F908F9008951C9206
:1015F00076CF0F931F93CF93DF930CE011E0C0E001
:10160000D0E0CE010E945316F80181938F012196FC
:10161000C132D105B1F7DF91CF911F910F9108959C
:101620000F931F93CF93DF930CE011E0C0E0D0E065
:10163000F80161918F01CE010E945B162196C132A3
:10164000D105B1F7DF91CF911F910F9108958823B4
:1016500029F081E080930F0160E003C010920F0138
:1016600061E08BE00E94AA0D0C94100B882341F0DE
:1016700081E080930E0160E089E00E94AA0D10C015
:1016800010920E0161E089E00E94AA0D61E089E0FC
:101690000E947B0D64EF71E080E090E00E94110EEB
:1016A0000C94100B1F93CF93DF9390910D01813019
:1016B00051F49B3EB8F4913E10F4965F0EC08BEE51
:1016C00080930D010FC0823069F4992359F0292FBE
:1016D00030E02B30310524F09A5090930D0102C078
:1016E00010920D0110910D01C12FD0E061E08AE050
:1016F0000E94AA0D209711F460E004C0CF3FD105ED
:1017000029F461E08AE00E947B0D7CC0EBEDF1E002
:10171000E4918E2F90E0FC013197EF30F10508F055
:101720006CC0EA5AFF4F0C94CC1684B5806884BD17
:1017300017BD68C084B5806284BD18BD63C0809148
:101740008000806880938000D0938900C0938800D7
:1017500059C080918000806280938000D0938B007C
:10176000C0938A004FC08091800088608093800081
:10177000D0938D00C0938C0045C08091900080680C
:1017800080939000D0939900C09398003BC08091C3
:101790009000806280939000D0939B00C0939A0049
:1017A00031C080919000886080939000D0939D001C
:1017B000C0939C0027C08091C00080688093C000C7
:1017C0008091C0008F7B8093C0001093CF001AC01F
:1017D0008091C00080628093C0001093D00012C03E
:1017E0008091C20088608093C2008091C2008B7F8C
:1017F0008093C2001093D20005C0C038D1050CF010
:1018000080CF7ACFDF91CF911F910C94100B90E095
:10181000FC013197EF30F105B0F5EB59FF4F0C9417
:10182000CC16809180008F7703C0809180008F7DDF
:1018300080938000089580918000877FF9CF84B5E0
:101840008F7702C084B58F7D84BD0895809190000C
:101850008F7707C0809190008F7D03C080919000AA
:10186000877F8093900008958091C0008F7703C098
:101870008091C0008F7D8093C00008958091C20048
:10188000877F8093C20008953FB7F8948091D70373
:101890009091D803A091D903B091DA0326B5A89B03
:1018A00005C02F3F19F00196A11DB11D3FBFBA2FF2
:1018B000A92F982F8827820F911DA11DB11DBC0152
:1018C000CD0142E0660F771F881F991F4A95D1F717
:1018D0000895CF93DF93E9EDF1E08491EAEBF1E035
:1018E000D491EBE9F1E0C491CC2391F081110E94F5
:1018F000070CEC2FF0E0EE0FFF1FEB57FE4FA5910A
:10190000B491EC91ED2381E090E021F480E002C0FD
:1019100080E090E0DF91CF910895009769F0FC019D
:1019200001900020E9F73197AF01481B590BBC012A
:101930008CE493E00C948A0480E090E00895209178
:101940004B03211103C08FEF9FEF08955FB7F89409
:1019500022E02093E9002091F20030E012161306F5
:1019600014F421E030E0422FFC0184E6415038F0CD
:10197000289880934A039091F1009193F7CF211515
:10198000310521F08091F200882319F05FBFC90171
:1019900008958BE68093E800F9CF8F929F92AF92E3
:1019A000BF920F931F93CF93DF93CDB7DEB7A1976D
:1019B0000FB6F894DEBF0FBECDBF19A2423008F4B7
:1019C0004AE08E010F5D1F4F842E912CA12CB12C6B
:1019D000A50194010E949B16E62FB901CA0101508E
:1019E0001109EA3014F4E05D01C0E95CD801EC9320
:1019F000232B242B252B61F7C8010E948D0CA19667
:101A00000FB6F894DEBF0FBECDBFDF91CF911F910F
:101A10000F91BF90AF909F908F900895682F8CE4A6
:101A200093E00C941D0281E08093A0038093A103B6
:101A300026EA33E03093A3032093A2031092A50378
:101A40001092A40328E531E030939D0320939C037A
:101A50001092A8031092A7031092AA031092A90350
:101A60008093AB038093AC0381EC8093A6030E9428
:101A70008405FC0121818091A00390E0820F911DDB
:101A80000897C4F5A281B381109729F48CE993E0FB
:101A9000938382830EC018968D919C91199700971D
:101AA00011F0DC01F8CF8CE993E019969C938E93AA
:101AB0001897808180939E03818180939F039081FA
:101AC0008091A103890F808380E09091A003891702
:101AD00088F4A091A203B091A303A80FB11D9C911B
:101AE000A181B0E0A35DBE4F9C9391819F5F9183E4
:101AF0008F5FEBCF08951F93CF93DF93282F30E0B4
:101B0000F901EF52FE4F8491F901EE54FE4FD4914A
:101B1000F901ED56FE4FC491CC23C1F0162F81116F
:101B20000E94070CEC2FF0E0EE0FFF1FE958FE4F6C
:101B3000A591B4919FB7F894111104C08C91D095E0
:101B4000D82302C0EC91DE2BDC939FBFDF91CF91B5
:101B50001F910895CF93DF9390E0FC01EE54FE4F68
:101B60002491FC01ED56FE4F8491882361F190E0B1
:101B7000880F991FFC01E759FE4FC591D491FC01D4
:101B8000E958FE4FA591B491611109C09FB7F8942F
:101B90008881209582238883EC912E230BC06230AC
:101BA00061F49FB7F8948881322F3095832388831E
:101BB000EC912E2B2C939FBF06C08FB7F894E88131
:101BC0002E2B28838FBFDF91CF910895823108F0AB
:101BD0008251E82FF0E0E35AFE4FE49180917B00C0
:101BE000E3FB222720F930E095E0220F331F9A957E
:101BF000E1F78F7D282B20937B00E770E064E09372
:101C00007C0080917A00806480937A0080917A00D1
:101C100086FDFCCF809178002091790090E0922B96
:101C200008958F929F92AF92BF92CF92DF92EF92E0
:101C3000FF926B017C010E94440C4B015C01C114BA
:101C4000D104E104F104F1F00E94440CDC01CB0169
:101C500088199909AA09BB09883E9340A105B105D5
:101C600070F321E0C21AD108E108F10888EE880E6D
:101C700083E0981EA11CB11CC114D104E104F1043D
:101C800019F7DDCFFF90EF90DF90CF90BF90AF902E
:101C90009F908F9008952FB7F8946091D30370911F
:101CA000D4038091D5039091D6032FBF08951F923E
:101CB0000F920FB60F9211242F933F938F939F9300
:101CC000AF93BF938091D3039091D403A091D50398
:101CD000B091D6033091D20323E0230F2D3720F4A7
:101CE0000196A11DB11D05C026E8230F0296A11D76
:101CF000B11D2093D2038093D3039093D403A09378
:101D0000D503B093D6038091D7039091D803A091C7
:101D1000D903B091DA030196A11DB11D8093D703B9
:101D20009093D803A093D903B093DA03BF91AF91F6
:101D30009F918F913F912F910F900FBE0F901F9009
:101D40001895789484B5826084BD84B5816084BD23
:101D500085B5826085BD85B5816085BD80916E0049
:101D6000816080936E00109281008091810082607A
:101D700080938100809181008160809381008091B7
:101D800080008160809380008091910082608093C8
:101D900091008091910081608093910080919000EA
:101DA0008160809390008091C10084608093C10025
:101DB0008091C10082608093C1008091C1008160E8
:101DC0008093C1008091C30081608093C3008091A3
:101DD000C00082608093C0008091C20081608093C7
:101DE000C20080917A00846080937A0080917A00AA
:101DF000826080937A0080917A00816080937A007B
:101E000080917A00806880937A0010924B03109240
:101E10008B0210928A028091D70081608093D70054
:101E200080EA8093D80089B5806189BD89B58260D8
:101E300089BD09B400FEFDCF61E070E080E090E074
:101E40000E94110E8091D8008F7C80618093D80011
:101E50008091E000807F8093E0008091E1008E7EA1
:101E60008093E1008DE08093E200559A209A68EE1D
:101E700073E080E090E00E94110E8FEF9FEF90934F
:101E800059038093580361E086E00E94AA0DC4E0E4
:101E900061E086E00E947B0D62E370E080E090E00C
:101EA0000E94110E60E086E00E947B0D62E370E00C
:101EB00080E090E00E94110EC15051F761E08AE08D
:101EC0000E94AA0D61E080E10E94AA0D61E08FE00E
:101ED0000E94AA0D61E085E00E94AA0D61E08DE0FC
:101EE0000E94AA0D60E080E10E947B0D60E08FE01F
:101EF0000E947B0D60E085E00E947B0D60E08DE03C
:101F00000E947B0D64E670E080E090E00E94110E7C
:101F10000E94420960E087E10E94AA0D60E088E12A
:101F20000E94AA0D60E08DE10E94AA0D60E085E1AB
:101F30000E94AA0D60E084E10E94AA0D10920E0199
:101F400080E090E00E945316853011F00E94100B43
:101F50000E94F90A80910D010E94520B81E090913C
:101F60000E01911101C080E00E94360B81E090913A
:101F70000F01911101C080E00E94270B8091100198
:101F8000882321F081E08093100102C0109210019B
:101F90000E94100B10929102109290021092BA02BD
:101FA0001092DB021092B802C1E0C093B702109207
:101FB000920261E082E00E947B0D61E083E00E947A
:101FC0007B0D8091B9008E7F8093B9008091B9001C
:101FD0008D7F8093B90088E48093B80085E4809376
:101FE000BC0081E693E090938F0280938E0282E69C
:101FF00093E090938D0280938C02C093B90284E2A7
:102000008093F0021092BA021092DB0260E086EC3C
:1020100093E00E94BC039091DB02913208F044C02F
:102020008091B8028111FCCF82E08093B80281E0F8
:102030008093B7028FEF8093B6021092B50290930F
:10204000B402EBEBF2E0A4E9B2E080E0981721F0F3
:1020500021912D938F5FFACF10929302809193027A
:1020600088648093930280919202813061F410928F
:102070009202809193028093BB008091BC0083FD0B
:10208000F8CF85EC01C085EE8093BC008091B8024A
:102090008230E1F38091B6028F3F31F08091B60239
:1020A000803211F08091B6021092BA021092DB02D7
:1020B0001092B9020E946E098091E602882309F409
:1020C0008FC088E10E94E60D8C012C018DE10E94F9
:1020D000E60DEC011C010E944B0E4B015C013E0120
:1020E00078010E944B0EDC01CB0188199909AA09DD
:1020F000BB0980319742A105B10508F046C061E0F7
:1021000086E00E947B0D88E10E94E60D6C0161E093
:1021100070E080E090E00E94110E8DE10E94E60DDB
:1021200028014E0C5F1C57FE03C04FEF441A540A9F
:10213000559447949E01260D371D37FF02C02F5F2F
:102140003F4F190135942794C016D10608F4860133
:102150008C179D0708F4EC01EC14FD0408F47601DB
:102160006816790608F43C0164E670E080E090E0CF
:102170000E94110E60E086E00E947B0D64E670E034
:1021800080E090E00E94110EACCFE418F5086218D0
:102190007308041915091093160100931501C2194B
:1021A000D309D0931801C0931701F0921A01E0925D
:1021B000190170921C0160921B0150921201409211
:1021C0001101309214012092130181E080932B01C0
:1021D00082E390E090932A01809329010E94100BE2
:1021E0008FE0E7EBF3E0DF011D928A95E9F74FE01E
:1021F00050E0BF0185EB93E00E94E204C0E0D0E034
:10220000FF24F3948CE493E00E944302181619060D
:102210000CF001C18CE493E00E94C404813609F4FF
:1022200081C004F5893409F451C04CF4823409F4B6
:102230008FC08334F1F1813409F0EAC076C086356D
:1022400099F1873509F45BC08C3409F0E1C064E191
:1022500070E080E090E00E94110E10923203109224
:102260003103B1C08D3609F4A0C08CF4893659F120
:102270008C3609F4C9C0823609F0CAC06091DC020C
:102280008CE493E00E941D026091DD028FC08337D1
:1022900009F47BC0873779F1823709F0B9C0109211
:1022A000EE021092EF02B2C06091350370913603D6
:1022B00004C0609133037091340380E090E04AE001
:1022C0000E94CD0CA8C06091100117C08CE493E06F
:1022D0000E944302019709F09BC08CE493E00E94A6
:1022E000C404813319F4F092100102C0109210015D
:1022F0000E94100B8BC060910E0170E0DECF8CE469
:1023000093E00E944302019709F082C08CE493E0BD
:102310000E94C404813311F481E001C080E00E9476
:10232000360B74C060910F01E8CF8CE493E00E94FB
:102330004302019709F06CC08CE493E00E94C4044E
:10234000813311F481E001C080E00E94270B5EC060
:102350006091EE028CE493E00E941D026091EF0216
:102360008CE493E00E941D021092EE021092EF02A4
:102370000E944B0E6093410370934203809343038A
:1023800090934403F092450346C060913C038091D2
:102390000E018111626080910F0181116460809152
:1023A0001001882319F0686001C061E28CE493E0B9
:1023B0000E941D0230C08CE493E00E94C40481326C
:1023C00051F4F09231038CE493E00E94430218161A
:1023D00019068CF30BC090913203E92FF0E0EF5017
:1023E000FD4F80839F5F90933203EDCF8091310347
:1023F000882339F0A0903203A0FE8DC380E991E0DC
:1024000087C38DE891E084C30E94420981E301C043
:102410008FE30E940E0D0E944B0E00914603109117
:1024200047032091480330914903DC01CB01801B15
:10243000910BA20BB30B0797A105B10508F4C0C21D
:1024400061E086E00E947B0D0E946E098091450349
:1024500081114CC28091C503807F8093C503909108
:10246000DF029923A1F085608093C5039091E0027B
:10247000992321F0807F86608093C5038091E102DB
:10248000882351F18091C503807F846023C090919F
:10249000DE029923A1F081608093C5039091E00250
:1024A000992321F0807F88608093C5038091E102A9
:1024B000882391F08091C503807F82600BC090914A
:1024C000E002992311F0876005C09091E102992301
:1024D00019F083608093C5032091E2028091B703D5
:1024E0009091B803A091B903B091BA03222311F0DF
:1024F000816001C08E7F8093B7039093B803A0934F
:10250000B903B093BA032091E3028091B70390918D
:10251000B803A091B903B091BA03222311F08260ED
:1025200001C08D7F8093B7039093B803A093B90344
:10253000B093BA032091E4028091B7039091B8035D
:10254000A091B903B091BA03222311F0846001C0B5
:102550008B7F8093B7039093B803A093B903B09394
:10256000BA032091E5028091B7039091B803A0913E
:10257000B903B091BA03222311F0886001C0877FAC
:102580008093B7039093B803A093B903B093BA03B1
:102590002091E6028091B7039091B803A091B9030E
:1025A000B091BA03222311F0806101C08F7E809325
:1025B000B7039093B803A093B903B093BA032091E3
:1025C000E7028091B7039091B803A091B903B0914D
:1025D000BA03222311F0806201C08F7D8093B7037C
:1025E0009093B803A093B903B093BA032091E80283
:1025F0008091B7039091B803A091B903B091BA0349
:10260000222311F0806401C08F7B8093B7039093E5
:10261000B803A093B903B093BA032091E902809163
:10262000B7039091B803A091B903B091BA032223E4
:1026300011F0806801C08F778093B7039093B8033F
:10264000A093B903B093BA032091EA028091B70333
:102650009091B803A091B903B091BA03222311F06D
:10266000916001C09E7F8093B7039093B803A093BD
:10267000B903B093BA032091EB028091B703909114
:10268000B803A091B903B091BA03222311F092606C
:1026900001C09D7F8093B7039093B803A093B903C3
:1026A000B093BA032091EC028091B7039091B803E4
:1026B000A091B903B091BA03222311F0946001C034
:1026C0009B7F8093B7039093B803A093B903B09313
:1026D000BA032091ED028091B7039091B803A091C5
:1026E000B903B091BA03222311F0986001C0977F1B
:1026F0008093B7039093B803A093B903B093BA0340
:1027000080913C03811108C04FE050E067EB73E01B
:1027100085EB93E00E94E20480912B01882309F469
:10272000D0C088E10E94E60D8C018DE10E94E60D8B
:102730002091110130911201A801421B530B9A0103
:1027400040911301509114018C01041B150BC09092
:102750002901D0902A01C216D3061CF42C193D0978
:102760000CC0882799278C199D09281739071CF454
:102770002C0D3D1D02C020E030E0809015019090AE
:10278000160152E3850E911C092C000CAA08BB0807
:10279000C901330FAA0BBB0B9C01AD0128193909E4
:1027A0004A095B09ACE4BFEF0E9488162091190129
:1027B00030911A01225331092901330F6608770835
:1027C000A3019201281939094A095B090E94691677
:1027D00057FD0EC02D348FEF3807410551056CF4BD
:1027E000DA01C901865A9F47A109B1095C0109C0F4
:1027F0002AE5A22E20E8B22E04C096EAA92E9FE771
:10280000B92EC016D10624F498012C193D090DC02B
:10281000882799278C199D090817190724F498010E
:102820002C0D3D1D02C020E030E04090170150907B
:102830001801A2E34A0E511C052C000C660877080B
:10284000C901330FAA0BBB0B9C01AD01241935093B
:1028500046095709A4EBB0E00E94961620911B018F
:1028600030911C01225331098901330F220B330BA4
:10287000A901980124193509460957090E946916CA
:10288000243B3105BFEF4B075B076CF012161306B4
:10289000140615065CF0DA01C9018A559048AF4F5D
:1028A000BF4F9C0105C02AE530E802C026EA3FE799
:1028B000B092BC03A092BB033093BE032093BD0330
:1028C00008C01092BC031092BB031092BE0310927A
:1028D000BD0380913C03811120C04FE050E067EBC5
:1028E00073E085EB93E00E94E20417C00E944B0E58
:1028F000009141031091420320914303309144031E
:10290000DC01CB01801B910BA20BB30B893E9340E2
:10291000A105B10510F01092450380913C03882376
:1029200009F440C08091DE02882319F082E00E9401
:10293000520B8091DF02882319F081E00E94520B34
:102940008091E202882319F081E00E94360B809189
:10295000E302882319F080E00E94360B8091E502A3
:10296000882319F081E00E94270B8091E4028823DC
:1029700019F080E00E94270B8091E602882321F065
:10298000F09210010E94100B8091E702882321F041
:10299000109210010E94100B68EC70E080E090E053
:1029A0000E94110E60E086E00E947B0D0E944B0E9B
:1029B00060934603709347038093480390934903C1
:1029C0000E944B0E00913D0310913E0320913F0366
:1029D00030914003DC01CB01801B910BA20BB30BA8
:1029E000893C9105A105B10500F187E10E94E60D42
:1029F000059738F40E94690C892B19F0F0923C037A
:102A000002C010923C0380913C03882321F0109275
:102A1000EE021092EF020E944B0E60933D03709302
:102A20003E0380933F03909340030E944B0E00911E
:102A300038031091390320913A0330913B03DC01B4
:102A4000CB01801B910BA20BB30B893E9340A105D8
:102A5000B105D0F161E070E080E090E00E94110EDD
:102A600084E10E94E60D909336038093350361E084
:102A700070E080E090E00E94110E85E10E94E60D7A
:102A8000909334038093330361E070E080E090E042
:102A90000E94110E0E94690C20913703892B39F096
:102AA000211108C0F09237030E94420903C021118E
:102AB000109237030E944B0E6093380370933903D2
:102AC00080933A0390933B03209709F49BCB0E9499
:102AD000000098CBE0FC2DC0E394BFEFCB1ADB0ADB
:102AE000AE10F8CF61E085E00E947B0D60E085E0EC
:102AF0000E94AA0D60E085E00E947B0D60E08FE0FF
:102B00000E947B0D60E080E10E947B0D8AE891E0ED
:102B10000E948D0C80CC61E085E00E94AA0D60E0EF
:102B200085E00E947B0D81EFC82E82E0D82EE12C3B
:102B3000D7CFD6010C91F601319780818A3314F4F6
:102B4000805301C087538295807F0A3314F4005369
:102B500001C00753080F10E0E1E0EE1213C080E05F
:102B60000E94360948E0B42EBA94C8010B2C02C06A
:102B7000959587950A94E2F781700E943609B11005
:102B8000F3CFAACF81E00E94360938E0B32EBA9481
:102B9000C8010B2C02C0959587950A94E2F78170C5
:102BA0000E943609B110F3CF97CF10924F031092C5
:102BB0004E0388EE93E0A0E0B0E080935003909342
:102BC0005103A0935203B093530384E691E0909392
:102BD0004D0380934C038FEF9FEF909359038093A5
:102BE000580386E791E09093B6038093B5038091F4
:102BF000E103811113C01092DC031092DB0380EF1C
:102C000091E09093DE038093DD0380E590E0909364
:102C1000E0038093DF0381E08093E1038091AD03C3
:102C2000811105C00E94130D81E08093AD03E091F6
:102C3000A703F091A803309739F48BED93E09093BC
:102C4000A8038093A7030AC080819181009711F0A7
:102C5000FC01FACF8BED93E0918380832091A9034F
:102C60003091AA038091DF039091E003820F931FBC
:102C70009093AA038093A9031092C9031092C803EA
:102C800088EE93E0A0E0B0E08093CA039093CB037A
:102C9000A093CC03B093CD038CE791E09093C7034E
:102CA0008093C6030895F999FECF92BD81BDF89A2D
:102CB000992780B50895262FF999FECF1FBA92BDA6
:102CC00081BD20BD0FB6F894FA9AF99A0FBE01960D
:102CD0000895052E97FB1EF400940E94801657FD60
:102CE00007D00E949B1607FC03D04EF40C9480166C
:102CF00050954095309521953F4F4F4F5F4F089528
:102D000090958095709561957F4F8F4F9F4F089557
:102D10000E94BD16A59F900DB49F900DA49F800D9D
:102D2000911D11240895B7FF0C9488160E948816EF
:102D3000821B930B0895A1E21A2EAA1BBB1BFD0157
:102D40000DC0AA1FBB1FEE1FFF1FA217B307E4078A
:102D5000F50720F0A21BB30BE40BF50B661F771FE2
:102D6000881F991F1A9469F76095709580959095C2
:102D70009B01AC01BD01CF010895A29FB001B39F9B
:102D8000C001A39F700D811D1124911DB29F700D74
:102D9000811D1124911D0895EE0FFF1F0590F491E0
:102DA000E02D099481E090E0F8940C94D716F89403
:022DB000FFCF53
:102DB200FFFFFFFF00E1000000000000050001012D
:102DC2000000000000000000000000000000000001
:102DD2000000000000000000003200000000C1807E
:102DE2008100000002000400030005000900080041
:102DF2000B000A0007000600010000000D000C0095
:102E02000E000F00000000005D02E002A00284023A
:102E1200000000001D028A043E0233024302C40481
:102E2200A00400000000E20400000000BC038F03C5
:102E3200EC0363038703730364034C5300463100BE
:042E42004632000014
:2070000055C000006EC000006CC000006AC0000068C0000066C0000064C0000062C0000043
:2070200060C000005EC00000F2C400005AC0000058C0000056C0000054C0000052C00000EE
:2070400050C0000078C000004CC000004AC0000048C0000046C0000044C0000042C00000BE
:2070600040C000003EC000003CC000003AC0000038C0000036C0000034C0000032C0000048
:2070800030C000002EC000002CC000002AC0000028C0000026C0000024C0000022C00000A8
:2070A00020C000001EC000001CC0000011241FBECFEFDAE0DEBFCDBF11E0A0E0B1E0E2E3BC
:2070C000FFE702C005900D92A83AB107D9F711E0A8EAB1E001C01D92AE3BB107E1F78FD30B
:2070E00026C78ECFF89410926F0010928100109285001092840081E085BF15BE47985D9AEB
:20710000289A0C94000008952091B2013091B3012F5F3F4F3093B3012093B201932F37FFA6
:2071200003C08EEF831B982F990F921710F447980895479A08951F920F920FB60F9211246E
:207140002F938F939F93EF93FF9310928500109284008091A8019091A901009741F00197D3
:207160009093A9018093A801892B09F45D9A8091AA019091AB01009741F001979093AB0126
:207180008093AA01892B09F4289AE0E0F0E0859194918F5F9F4F49F08091AC019091AD0151
:2071A00001969093AD018093AC01FF91EF919F918F912F910F900FBE0F901F90189584E0BC
:2071C0008093E9000DC08091E8008B778093E80003C08EB3882351F08091E80082FFF9CFBE
:2071E0008091E80085FFEFCF8091F1000895982F83E08093E9008091E80085FD0DC0809136
:20720000E8008E778093E80003C08EB3882369F08091E80080FFF9CF9093F1005D9884E6CB
:2072200090E09093A9018093A80108954F925F926F927F928F929F92AF92BF92CF92DF921E
:20724000EF92FF920F931F93CF93DF9384E08093E9008091E80082FF57C2289884E690E067
:207260009093AB018093AA01AADF182F853481F48CE49DE19093AD018093AC0107B600FC4B
:20728000FDCFF999FECF81E180935700E89503C0843519F494DF8DE00DC28C34E1F38035F9
:2072A000D1F3843721F484E4A2DF80E003C2813611F489E5FFC18134B1F481DF182F7FDFE3
:2072C00090E0880F991FAA2797FDA095BA2F312F330F20E0442737FD4095542F822B932B68
:2072E000A42BB52BB8C1803711F483E5E3C1833549F4C0E0D1E089917ADF21E0C730D20714
:20730000D1F7D9C1863521F481E371DF80E3D2C1833731F487E86BDF85E969DF8EE1CAC149
:207320008536B9F4E0E0F0E093E085E090935700E89507B600FCFDCF80935700E89507B65D
:2073400000FCFDCFE058FF4FA0E7E030FA0771F7A2CF823739F4E1E0F0E089E08093570024
:207360008491A8C1863439F4E0E0F0E089E08093570084919FC18E3439F4E3E0F0E089E0E5
:2073800080935700849196C1813539F4E2E0F0E089E08093570084918DC1823631F489E521
:2073A00026DF80E024DF80E885C1823419F0873609F0E5C01092AD011092AC0100DF082FE8
:2073C000FEDEF82EFCDE682E8554823008F071C1902F80E0CF2DD0E0C82BD92B10926F00B3
:2073E000173609F04BC081E180935700E895DD24CC24C3943FC0E090AE01F090AF010091CC
:20740000B0011091B101B6E46B16D9F4ED2DF0E0EE29FF29E4918E2FEADEDD2081F082E08D
:2074200090E0A0E0B0E0E80EF91E0A1F1B1FE092AE01F092AF010093B0011093B101DC2470
:2074400018C0D801C701B695A7959795879559D5CEDE82E090E0A0E0B0E0E80EF91E0A1FF2
:207460001B1FE092AE01F092AF010093B0011093B1012197209709F0BECF7DC08090AE01F5
:207480009090AF01A090B001B090B10196E4691609F05DC083E0F40180935700E89507B63E
:2074A00000FCFDCF54C0F6E46F1661F5772031F1E090AE01F090AF010091B0011091B1019E
:2074C0007EDED82ECC24852D90E08C299D29F7010C0140925700E895112482E090E0A0E08B
:2074E000B0E0E80EF91E0A1F1B1FE092AE01F092AF010093B0011093B10102C060DE582E1A
:20750000742423C0E090AE01F090AF010091B0011091B10116950795F794E79450DE682FFA
:20752000C701F7D48091AE019091AF01A091B001B091B1010296A11DB11D8093AE01909349
:20754000AF01A093B001B093B101219704C05524772444244394209709F0A5CF96E46916B6
:2075600041F485E0F40180935700E89507B600FCFDCF8DE03CDE82E080936F009CC0833492
:2075800071F40091AE011091AF0119DE90E021E0F8010C0120935700E89511247CCE8336C8
:2075A00019F5E090AE01F090AF010091B0011091B10105DEF701E16090E021E00C0120938C
:2075C0005700E895112482E090E0A0E0B0E0E80EF91E0A1F1B1FE092AE01F092AF0100936A
:2075E000B0011093B10157CE8D3661F4E091AE01F091AF0185E080935700E89507B600FCF2
:20760000FDCF49CE823551F4E091AE01F091AF0105911491812FEBDD802F4CC0843421F5FE
:20762000E090AE01F090AF010091B0011091B10116950795F794E794C2DD682FC70169D4DE
:207640008091AE019091AF01A091B001B091B1010296A11DB11D8093AE019093AF01A093D8
:20766000B001B093B10117CE843609F5E090AE01F090AF010091B0011091B101D801C70142
:20768000B695A795979587953CD4B1DD82E090E0A0E0B0E0E80EF91E0A1F1B1FE092AE010A
:2076A000F092AF010093B0011093B10104C08B3111F08FE39CDD83E08093E9009091E8002B
:2076C0008091E8008E778093E80095FF04C010C08EB38823C9F08091E80080FFF9CF809193
:2076E000E8008E778093E80003C08EB3882361F08091E80080FFF9CF84E08093E9008091F1
:20770000E8008B778093E800DF91CF911F910F91FF90EF90DF90CF90BF90AF909F908F90AC
:207720007F906F905F904F9008959091B601892F8F77813249F58091B7018032A1F081328A
:2077400019F5913A09F58091E800877F8093E8008DE091E067E070E00BD28091E8008B770B
:207760008093E8000895913279F48091E800877F8093E8008DE091E067E070E05DD2809192
:20778000E8008E778093E800089582E061EC42E0B5D083E061E842E1B1D084E060E842E1EF
:2077A000ADC084B7877F84BF88E10FB6F89480936000109260000FBE20E880E090E00FB63F
:2077C000F89420936100809361000FBE81E085BF92E095BF3F9A209A559AE1E6F0E02083A1
:2077E000108247985D9A289A109289008AEF8093880090936F0083E080938100F0C0409116
:20780000000850910108109201081092000894B714BE88E10FB6F8948093600010926000D5
:207820000FBE292F30E0F901E270F07091FD18C090FF05C0859194918F5F9F4F81F423FFFF
:207840000FC08091090190910A014817590741F0E0E0F0E0859194918F5F9F4F09F042DC64
:20786000A0DF78941092AD011092AC010CC0DEDC36D38091AC019091AD0181549F4110F00D
:207880001092140141DC80911401882381F78091E00081608093E00025DC80E090E0089598
:2078A000FA01923049F0933061F09130F9F485E191E022E130E01EC087E291E02EE330E04D
:2078C00019C0882329F485E691E024E030E012C0813029F489E691E022E230E00BC0823006
:2078E00029F48DE891E028E130E004C080E090E020E030E091838083C90108958093E9004E
:207900008091EB0081608093EB001092ED006093EC004093ED008091EE00881F8827881F62
:2079200008958091B60188238CF403C08EB38823B1F08091E80082FFF9CF8091E8008B772A
:207940008093E80008958EB3882349F08091E80080FFF9CF8091E8008E778093E800089594
:20796000EF92FF920F931F9345D04CD008ED10E0F80180818F77808380818068808380819B
:207980008F7D808319BC1EBA1092B40180EEE82EF12CF70180818B7F8083F8018081816052
:2079A000808380E060E042E0A9DFE1EEF0E080818E7F8083E2EEF0E0808181608083808144
:2079C00088608083F70180818E7F8083F8018081806180831F910F91FF90EF900895E7ED06
:2079E000F0E08081816080838AE482BF81E08093B501B6CFE8EDF0E080818E7F808310921C
:207A0000E20008951092DA001092E10008951F920F920FB60F9211242F933F934F935F93F6
:207A20006F937F938F939F93AF93BF93EF93FF938091DA0080FF1BC08091D80080FF17C0B2
:207A40008091DA008E7F8093DA008091D90080FF0BC080E189BD82E189BD09B400FEFDCF36
:207A600081E08EBB3BD203C019BC1EBA37D28091E10080FF17C08091E20080FF13C0809138
:207A8000E2008E7F8093E2008091E20080618093E2008091D80080628093D80019BC85E049
:207AA0008EBB1CD28091E10084FF2CC08091E20084FF28C080E189BD82E189BD09B400FEC5
:207AC000FDCF8091D8008F7D8093D8008091E1008F7E8093E1008091E2008F7E8093E20012
:207AE0008091E20081608093E2008091B401882331F48091E30087FD02C081E001C084E067
:207B00008EBBECD18091E10083FF21C08091E20083FF1DC08091E100877F8093E10082E06A
:207B20008EBB1092B4018091E1008E7F8093E1008091E2008E7F8093E2008091E2008061E9
:207B40008093E20080E060E042E0D8DEC7D1FF91EF91BF91AF919F918F917F916F915F9130
:207B60004F913F912F910F900FBE0F901F9018959C014091BC015091BD014617570718F49D
:207B8000F90190E044C06115710511F0AB01F8CF8091E8008E778093E80040E050E0F0CF0F
:207BA0008EB3882309F444C0853009F443C08091E80083FF02C081E008958091E80082FD70
:207BC00031C08091E80080FF22C08091F3009091F200782F60E0292F30E0262B372B07C07A
:207BE00081918093F100415050402F5F3F4F4115510519F02830310598F390E02830310566
:207C000009F491E08091E8008E778093E8004115510531F6992321F605C08EB3882341F075
:207C2000853041F08091E80082FFF7CF80E0089582E0089583E008959C016115710529F47C
:207C40008091E8008B778093E800F90126C08EB3882391F1853091F18091E80083FF02C06C
:207C600081E008958091E80082FFF1CF06C08091F10081936150704059F02091F300809191
:207C8000F200322F20E090E0822B932B892B79F78091E8008B778093E80061157105B9F601
:207CA00005C08EB3882341F0853041F08091E80080FFF7CF80E0089582E0089583E00895C2
:207CC0000F931F93DF93CF9300D0CDB7DEB7E6EBF1E08091F100819381E0EE3BF807C9F792
:207CE00024DD8091E80083FFE4C08091B6019091B701953009F46DC0963040F4913081F1A7
:207D0000913070F0933009F0D4C02AC0983009F4A3C0993009F4B2C0963009F0CAC07CC023
:207D2000803809F4C6C0823809F0C3C08091BA0187708093E9008091EB001092E9002091DB
:207D4000E800277F2093E80090E025E0969587952A95E1F781708093F1001092F10087C0D8
:207D6000882319F0823009F0A4C08F71823009F0A0C08091B801882331F52091BA01277097
:207D800009F497C02093E9008091EB0080FF1BC0933021F48091EB00806213C08091EB0018
:207DA00080618093EB0081E090E002C0880F991F2A95E2F78093EA001092EA008091EB00E5
:207DC00088608093EB001092E9008091E800877F51C0882309F06DC01091B8011F770FB79B
:207DE000F8948091E800877F8093E8009ADD8091E80080FFFCCF8091E3008078812B809398
:207E0000E30080688093E300112311F482E001C083E08EBB0FBF4DC08058823008F049C033
:207E20008091B8019091B9016091BA01AE014F5F5F4F36DDBC01009709F43BC08091E8008E
:207E4000877F8093E80089819A8192DE8091E8008B778093E8002DC0803859F58091E800AA
:207E6000877F8093E8008091B4018093F1008091E8008E778093E80054DD1BC08823C9F4CA
:207E80009091B8019230A8F48091E800877F8093E8009093B40145DD8091B401882331F420
:207EA0008091E30087FD02C081E001C084E08EBB6CDC8091E80083FF0AC08091EB0080624E
:207EC0008093EB008091E800877F8093E8000F900F90CF91DF911F910F91089508951F9360
:207EE0008EB3882361F01091E9001092E9008091E80083FF01C0E4DE17701093E9001F916F
:207F00000895F999FECF92BD81BDF89A992780B50895262FF999FECF1FBA92BD81BD20BDBD
:207F20000FB6F894FA9AF99A0FBE01960895F894FFCF4341544552494E4100777700080031
:207F40000000000000080112011001020000084123360001000201000109023E00020100FF
:207F600080320904000001020201000524001001042402040524060001070582030800FF0C
:207F800009040100020A000000070504021000010705830210000104030904220341007216
:207FA000006400750069006E006F0020004C0065006F006E006100720064006F0000001836
:1A7FC00003410072006400750069006E006F0020004C004C004300000000D7
:00000001FF
